:20000000003A01202921020039FB021039FB021039FB021039FB021039FB021039FB021095
:1C00200039FB021039FB021039FB021039FB021039FB021039FB021011FB021002
:200040002DE9F04FB84FB81CADF15C0D00780E91090C1BD20E98C00B38BF0020C1F06E8524
:20006000B04C04F10C00006858B107463D6938462AF024F8384624F0EDFB2F1CF6D10020BF
:20008000E0600E9880F4804001F058BD21F0DEFB00280F9001F04F8500200F9D1090FA78EC
:2000A000B94E28780146D22910DCD22901F038851A3901F0D5841739052941F231859F39E6
:2000C00001F02E85491E01F0B7840CE0D33901F02485491E022941F22385293901F08E8485
:2000E000491E01F06584AC4C8C3E0122452895F80280317894F842A011923FDC452800F02C
:20010000178728281EDC282801F05380002801F0EA83801E01F0D483401E01F04284401E04
:2001200001F03B84C01E01F0BF83401E01F06583401E01F05A83DFF8C8C2C01F122854D9F4
:2001400001F0E1BB2A3801F02280401E01F01880DFF8A8C2401E00F0AE870E3800F04C8769
:20016000401E01F00A84401E01F00384401F00F01587801E00F0FC8601F0C5BBD8281CDC68
:20018000D82800F00B814A3800F0B886401E00F09C86401E00F08E86401E00F07F86533883
:2001A000242837D92D3801F0BC83401E00F0BA83093800F0278201F0A6BBE13801F0AB835F
:2001C000C01E01F0A483801E00F0C880401F00F09680A8490E387AD0401E47D0401E40D08A
:2001E000401E01F0928301F08EBBDFE810F0F50AB70A9C0A8C0BD10B840A770A8C0B550ABC
:20020000340A8C0BFF09CA098C0BCD0BCA0BFC08CE08F407DFE810F0A90BA50BA10B3C06FC
:200220009D0B990B950B37068F0B1806D905A6057E0569055E054E054105390530058A0B5F
:2002400028050C05E404AA04840479040604FA03EF03770B770B770BC203A203770B770BD8
:2002600090036868002800F0428542E06F68002F00F03D850E7836F001063AD13C887E68FA
:2002800002208DF820003146ADF8224009A829F074FB08A815F02EFB012815D14FF6FE7040
:2002A000A0420BD0304628F0A0F928B9109920460A4625F0F1FD08E0109806E01099304682
:2002C0000A4621F0B9F800E01198129528E3686890B10F7837F001070BD1099010998DF867
:2002E000201008A802218DF821101DF023FC01F071BA122000F03ABE129500F033BC68688D
:20030000007898B9109827F013FC26F05BFD11980DA98DF83400522024F07EFF28F026F887
:2003200001F043BBD8560020685700204FF6FF7027F0FEFB30784FF4807121F019FE307831
:200340004FF4807120F0DCFB10980DF135018DF83500522024F060FF01F027BB686800283C
:2003600001F02383A64C01886180807A70B929F072FC40F28A21B0FBF1F220780821521D45
:2003800029F0D3FC01F011BBDC180020708F114628F08CFC01F009BB2452002068681295EC
:2003A000002800F0DF8300681390807E27F0AAFC061C08BF022000F009811398109DC769F0
:2003C0004FF003092C463878A04200F301810F2410FB04F0401CC0B240191CF0B1FA5FEA00
:2003E000000800F0F28023F0C1FF002840F0EA80109D159588F800504DE0C046D050002064
:20040000B45500201399032315FB03F6BA1991F81AA0B1F80C9052880F2015FB008450464A
:20042000494625F0B7F9BA195288834608AB504623F066F9641CBBF1FF0F1DD0E0B1A8488F
:200440009DF827300168D80838BF8C2015D39DF826001623207103FB0B10C18800F10E02F4
:20046000A4F805100189C4F80B201598A4F8071003E0C0468551002086202070B81940785C
:20048000BB1960705888608098F800006D1CEDB2401C88F800003878A842B3DC1398817E91
:2004A000474600F10E064FF00F0985893A78109190F80AA01396159914950C468A4264DC62
:2004C000204629F0D3FC061C58D0159D02463EE015FB09F0391838184078491C02F8010B9F
:2004E000487802F8010B887802F8010B4888001202F8010B0B7843BB4B78F3B9087902F8DD
:20050000010B487902F8010BB1F80500001202F8010BC87902F8010BB1F80700001202F83F
:20052000010B0879834628F038FC70B1D1F80B10584617F063F8024607E0487A02F8010B1D
:20054000B1F80900001202F8010B6D1CEDB23878A842BDDC159900911198019002900391D7
:20056000CDF810A00594149A069610980791139909230FF0A3FB304629F0B8FB384624F09A
:2005800069F928F061FA159820E011FB09F3F818FB185E78241DA4B2401C86B9467866B9C9
:2005A0000079834628F0F9FB641DA4B238B158461CF0B0FB001984B201E0A41CA4B2491C2D
:2005C000C9B27BE7404624F045F91020109014E114FB0972139930785288898908AB23F011
:2005E0008FF850B19DF82600014628F0D6FB20B108461CF08FFB2D18EDB2641CE4B2E2E611
:200600003456002068681295002800F0AB8200681390807E27F076FB002800F0808113981F
:20062000D0F81C8098F80070002F00F07881B800401C1CF085F90028149000F06E8129F0DC
:200640001DF923F093FE002840F06481109E1696159698F80000B04200F3E48016980128EE
:2006600040F08C80C84DA878EA68162111FB00F081B2562029F0ACFA05F10C0640B9A878FB
:200680003268162111FB00F081B2562029F0A6FA6078802121F06CFC2F78B8001CF050F985
:2006A000B8461690002869D02E78B8F1000F0BD005F118014A7842704A8811F8144B42807D
:2006C0007F1E00F8044BF5D1002E3DD0DDF8409037464FF0140BCA46A6B305F1180411E049
:2006E000605F0020002808BF564607D041680668216124F0AFF8207B401E2073304624F04F
:20070000A9F82E7820690028ECD1761EF6B216FB0BF2A0184188618041786170C188E18044
:200720008188A18001890C30218109C804F10C0181E80900105D2070A318C3F8109083F854
:200740000CA02E707F1EC7D10FF0E8F9B8F1000F11D0169C183547466078618825F0B6FB8E
:20076000FF2804D02678810001EB00116E547F1E04F10404F0D1169824F06CF815981499C5
:20078000087018B910984870119F0F70139890F81AA00C4600F10E098689857A207804216F
:2007A00010FB01F0804629F061FB071C1ED0014610982278824222DC012A03D164780CB906
:2007C000DDF8448010990091119801900290039104953246CDF81480072306975046079187
:2007E00049460FF06BFA384629F080FA149824F031F828F029F926F063F8109890E08200C7
:20080000A3185B780B70A3189B784B70A318DB78A2188B70B2F80320401CC0B21212CA708A
:20082000091DC6E7139B9F890E2016FB00856D1C93F81AA0B5F80190394650464A4624F086
:20084000A9FF834608AB504622F05AFFBBF1FF0F48D0002846D02F78002F58D19DF82600A9
:20086000E97888423CD19DF82700C00836D3BE480168A8884FF6FF72824201D1EF88B7B1E9
:20088000162202FB0B17F880E8883881E87828F084FA00B310990E37042238461DF082FE98
:2008A000E8781CF037FAD5F80A5002460FE0162000FB0B156889042205F10E07E880A88931
:2008C0001099288138461DF06DFE123504223846294628F0C3FA1198169018E08C2102E0CB
:2008E0008D2100E08721159BDDF850C098000CEB0002517029780CEB00075B1CB970DFB20B
:20090000B5F8011015970CEB0002A2F80310761CF6B29EE6149823F09DFF102000E002207C
:20092000129D65E06868002800F01C816868006825F0E6FA00F04EBFAF68002F00F012814B
:20094000109CBAF1000F6C7006D02046014604F075FC002800F09781119C94E16F68002F15
:2009600000F000811098687069680F7877B984F8460094F82100401E84F8210011980146A4
:2009800024F040FF01F011B8545F002029F0EAF81198014607F014FC01F007B868680028DD
:2009A00000F0E080067847681099082208A81DF0F9FDE7B1BE4810990170AEB1761E0ED0AB
:2009C000761E0AD0761E03D0761E10D111990170384608A918F062FF0AE011990170384697
:2009E00008A924F057F803E022F01CFB00E002202C4610907BE06868002800F0B38068687D
:200A000000F1120124F046F800F0E4BE6868002800F0A8806A6810785188928817F00CF886
:200A200000F0D8BE2C466068002800F09B8006784588B0F804B0B0F806A0B0F808900A3054
:200A40001290B3480779002F5BD0C5490F68002F55D080467868007886424DD128F0E2F850
:200A6000002849D0027C002A46D04369002B43D010980C27824242DD10FB07F1595A8D424A
:200A800037D10E201BF05CFF071C3AD0109807F10A0104235B1E01F8010BFBD1B880FF2119
:200AA00039704FF6FF737B803881F8803E707D800422A7F804B01299A7F806A007F10A0094
:200AC000A7F8089028F0CAF908201BF039FFD8F8141018B9384623F0BDFE12E0076041608E
:200AE000C8F8140098F81000401C88F81000109808E0401CC0B2BDE73F68002FAAD1022021
:200B000000E0119825461090F6E1686850B31098687068681EF00CFFA968088000F045BFA1
:200B2000AF68FFB1109868702678AD686178002E05F1010708BF28700FD00846402123F0B6
:200B400069FE4FF47A710F2300F2E730B0FBF1F116FB03100F3828702678002F00F02587CC
:200B60003046B4E0284616E0605F00202846A28F94F83F3094F84060A76B94F841C094F837
:200B800043E094F8448094F8459094F846B0816894F83E5009B90546A9E010994170816823
:200BA0000A818168CB7281688D7281680E73816881F80EA081684F60816881F80DC0616B8F
:200BC00082681160816881F80FE0816881F81080816881F81190806880F812B000F0E5BEBF
:200BE0006F68002F00F08380109868706868077D17B1C07C84F845006868877D17B1417D09
:200C000084F84610077C17B1C089A0876868077B17B18068A0636868877C1FB1407C84F867
:200C20004100686807790FB10068606300F0BDBE1099BAF1000F69700ED094F83F0080095F
:200C40000AD208A808221DF0ADFC28F054FD08A81AF056FB00F0A9BE28F04DFD4FF4FA704E
:200C600027F074FB00F0A1BEA86800283FD01098687028F0D1FF29E0C748AF680478002F16
:200C800035D010986870204620E0686800282ED06868007822F004FC72E36F683FB3109853
:200CA00068706868007806F051FC00F07EBEC0462C510020A868D0B11098687022F03EFFA2
:200CC000002808BF119800F051810078AF68387000F06BBE6F6857B11098687069680888AA
:200CE000897821F0FDFD00F060BE686808B902203CE1C04C6968082204F10C0028F0AEF844
:200D0000686801896180807A207000F074BDC046545F00206868002854D00188ADF830108A
:200D20004088ADF832000CA9532024F075FA50200DF1320124F070FAE1200DF1360126F0FE
:200D400059FD68689DF836100079884206D08DF836000DF13601E12024F05EFA109832E062
:200D600074570020686868B3007824F0ABFF686896F83C104078884213D086F83C000DF1A0
:200D80003701E12026F036FD68689DF837104078884206D08DF837000DF13701E12024F0C6
:200DA0003BFA6868119C407804FA00F0F06427F0E9FDDDF840802046A6F8948021F038FA9A
:200DC0004046DCE3022010903BE06F68002F00F0D583387886F84A007C887487387A86F8FC
:200DE0003C007B89F3877A68F264B989A6F84810B87B86F85C00F87B86F82900387C86F870
:200E000027007C697465B86996F89610B065387F884201D024F056FF696806F15D001D3155
:200E200028F0A4FF96F84A0006F12404082808D121207421224628F0D1FE1098022124F0F3
:200E400085FEDDF84080BBE76F68002F00F096833888798825F0A6F978B969680888119A17
:200E6000498823F04FFB69680888498825F09AF9002808BFC82000F082836968097941709A
:200E8000109800F00FBD6F68002F00F0778303E06F68002F00F07283122070E368680028B3
:200EA00000F06C836A6810889178D27824F0F4FF00F090BC6868002800F060836868017A3D
:200EC000427A20F0B9FA00F085BC6868002800F0558340788DF82000686880788DF82100D7
:200EE0006868007827F094FD002800F047830C3008A9022227F0B2FF109840E36968002982
:200F000000F03C83A868002800F03883087808A927F0B6F86868A968007808709DF82000C3
:200F2000A96848709DF82100A968887000F063BC6868002800F022830A30077807B9109A6A
:200F400047780FB142F0020287780FB142F00402C7780FB142F00802007908B142F0400204
:200F60006968109B0888891C24F0C0FB804627E76868002800F0028302208DF82800686811
:200F80000088ADF8200068688178C27808A821F09FF800F01FBCC0467455002068680028F7
:200FA00000F0EC8202208DF82800686801884FF6FF70884205D0821E8A4202D0C01E884272
:200FC0000BD128F057FDADF820006868C27A837A811C08A823F086F9687068680088ADF847
:200FE00020006868C27A837A811C08A823F07AF9F0E3C0466C5200206F68002F00F0BE8208
:2010000002208DF8280069680988ADF820106A681379B2F80680167AD2F80CB0177CD2F8C9
:2010200014A051886446221D146810930346F21912FB03F00F305FFA80F9B9F14E0F00F3BC
:201040009D8028F017FD884233D121700812607027F0C8FEA41C0146204628F087FE0446CD
:201060001098207084F801804FEA2823A370E670241D66B15846A41E017804F8021F30F8D8
:20108000021B761E4FEA21216170F5D1A41C27705FB1641E5046017804F8021F30F8021B33
:2010A0007F1E4FEA21216170F5D1C64820224B4660E0184663E26F68002F00F05F820221C3
:2010C0008DF8281068680088ADF820006868E146428883888679D0F80880077BD0F810E0E1
:2010E000D9F80400F41914FB01F1891D5FFA81FCBCF14E0F42DC9DF828100F2918BF022962
:2011000008D1BDF820404FF6FF71A14204BF891EADF820104FF6FF71914208BF8A1E00F81B
:20112000012B111200F8011B00F8013B1C1200F8014B00F8016B66B14146801E0A7800F88C
:20114000022F31F8022B761E4FEA22224270F5D1801C07705FB1401E71460A7800F8022F9C
:2011600031F8022B7F1E4FEA22224270F5D148460622634608A91FF05FFA00E21020FEE11E
:201180006A68002A00F0FA810220052217E06868002800F0F38102208DF828006868008825
:2011A000ADF8200068684188027908A827F0FEF810E36868002800F0E181022002468DF86D
:2011C000280068680088ADF820006868418808A827F002FCFEE22C466368002B00F0D280E2
:2011E000187D27F069FC002800F0CC809D691C331F78002F0CBF109802205F780FB140F003
:2012000010009F780FB140F00800DF780FB140F020001F790FB140F040005F790FB140F0B8
:20122000800082466068007D28F020FB5FEA000800F0A8806068807A8DF829006068808944
:20124000ADF82A006068007802288DF828000CD001280AD00F2808D003280AD1616808A83B
:201260000822891C27F0FAFD03E060684088ADF820006068877B002F73D078001BF060FB3F
:20128000061C08BF10207ED010996068877B8F4261DCC18A838CCDF84880826A16950C2FAD
:2012A000139190F822901493BDF8208015924CDA404620F083FB0C2816D14FF6FE7020F095
:2012C0007DFB0C2810D1DFF818C3119910989CF82C310CF59A7C1CF8082B9342C4BF131CA7
:2012E000081C491C0C29F6DBBE4D4FF6FE7305EBC00568686B8018B123F0ACFA109868603C
:2013000077B14FEA470B58461BF01AFB6860002808BF10201AD0686831465A4627F09EFDF2
:20132000A5F80280B0486F70159B0078169F287012990093139A019708A8CDF808A0149BF3
:20134000CDF80C900CF0B2FF00E002206070304623F080FA29E300694A00105A491CB0521A
:2013600093E7816A00910195CDF808A090F822100391C28A838C414608A80CF097FF254697
:20138000109038E202202546F9E06868002800F0F580007827F090FB061C00F0EF80307B8A
:2013A00022F058F80028687040F0FF827C683546002C00F0FA82109826462EB9B54205D05C
:2013C000F3E2C046D0500020B54209D1AC4219BF2968016028687860284628F07FFCE4E23A
:2013E00030463668E9E76868002800F0C780007827F062FB002840F0BF8027F0D7FD05283F
:2014000080F2B880109E40466E7027F047FB041C01D0237B73B11C201BF092FA041C00F021
:20142000C48231461C221DF0BDF884F80480DDF8448000E0B0466868007820736868007A5B
:20144000BF1C2076142027611BF07AFA0028606141D0314614221DF0A5F869686269496842
:201460009079897900F0F00001F00F010143917168684068616980888880686840686169A6
:201480000078087068684068616940884880686840686169C079C871686840686169007B19
:2014A00008736069C07940001BF04AFA616988606769BB681BB13046F979814250DC387B25
:2014C00040001BF03DFA386161690F691FB130460A7B82423ADC04F10C00814617F06EF8D5
:2014E0000746022F18BFB82F06D1207B21F0B2FF484617F063F807463FB9B8F1010F20D19D
:20150000204624F09BF9C8B11BE0B8F1010F15D0606968B183681BB1184623F09BF9606944
:2015200003691BB1184623F095F9606923F092F94846314610221DF035F802E0204628F03C
:20154000CDFB022F18D0B82F16D02EE26B685B6842001B690969D35A53526169401CB7E769
:201560006A68526841009268BB688A5ACA526769401CA1E7D12002E0D02000E00220109068
:201580007EE46868002800F08C81A868002800F08881109908221DF005F8696808784988C4
:2015A00025F044FD071C19D010986870A96838880880B878A9688870AC68A078002800F073
:2015C000F4811BF0BDF96060AA685068002800F0EC819278F91C27F041FCE6E1B12061E179
:2015E000200100204C0200209E5100206F68002F00F05781AF68002F00F05381109C6646FD
:201600006C7068683768017820463FB13A79914204BF401CC0B23F68002FF7D1A968087072
:20162000A868007840001BF08BF9A968376848606868A96800784968002F00F0B6813A79E8
:20164000904204D1FA88661C21F81420F4B23F68002FF4D1A9E16F68002F00F02281109F7F
:201660006F70686864460678206890B101798E420BD1002F04BF0568256002D001683960EC
:20168000056823F0E7F8284601E0074600680028ECD123F0DFF988E1022068706F68002FAE
:2016A00000F0838166463A7879883068002800F07C81109F03799A4202D1C388994204D056
:2016C000074600680028F5D16FE107B967460168396023F0BFF823F0BDF98CE068680028B1
:2016E00000F0DF80807800B9109A6868119900881EF064FD6EE06968002900F0D280887845
:2017000030B1C878002806BF101C1090032100D110996A6817790FB141F04001108852795A
:2017200012F0B2FF56E06868002800F0BA80696808A80822091D27F091FB032027F006FCEE
:201740006868C07B24F08EFB6868817B009102788389418808A815F069FB3BE06868002809
:2017600000F09F80404627F099F9041C14D11C201BF0E6F8041C00F0188110991C221CF065
:2017800011FF84F80480204624F058F820B9204623F060F8D12085E0E088AF4940F00800D7
:2017A000E08040F00400E080022028F0C3F9AB49032028F0BFF9686800680890686800793F
:2017C0008DF82400119F8DF825708DF8267008A81FF0A2FD6870E8E06868002861D0686884
:2017E0001099008803F02AFDDFE06868002858D06868007870701098ECE7D2486F680478AF
:20180000002F4ED01099697068682A221CF0CAFE708F696808806868B6F8487084726968B4
:201820008F81F08F6968C8826868082206F1240707F139010E3027F011FB27F0D3FA014624
:2018400068680822801C27F009FB6868082207F11C01183027F002FB96F83C10686880F84A
:20186000231011986968B84C81F8210021784A0824BF6A6882F824008A0824BF6A6882F81E
:201880002500CA0824BF6A6882F826000A0924BF6A6882F82700C90924BF696881F828006C
:2018A00083E00220109009E0686850B390F90000044627F09FF8A86800B1047010985FE5A5
:2018C0006F68F7B110986870696817460F7069684F7068680226867068680624C4706968DF
:2018E00003230B7161E0686858B1407818B1FF20032124F02BF928F0C9F81198934908606A
:20190000FEE702203CE512203AE5122062E729461DF0DAF848E010988D496870E87808702F
:2019200043E0109868701BF0BBFF3EE01098687025F092FB39E008464FF480711FF0B4FFA2
:2019400059E729461EF07CFF2EE0294613F0DCF82AE0294618F0C6FB26E0294627F0A6FF88
:2019600022E0294621F0ACFB1EE0294621F060F81AE029461EF02AF916E0294619F082FBE3
:2019800012E027F007FB25E7294620F059F90BE04046294607F002FA06E0294606F090FDB4
:2019A00002E0294607F082F8119011981090B7E0162026F043FB2C46071C00F0B180DDF8CF
:2019C0004080162241461CF0EDFD9320387046467E7060783871A07838742079012814BFE3
:2019E00002200120B871E0883881E0783875A07827F062F8002800F0878089E00A2026F004
:201A00001DFB071C00F08C80DDF840800A2241461CF0C8FD9120387046467E70A978797198
:201A200069783971E978B971A9883981A87827F043F8002868D06BE02846407890426FD051
:201A40001099444BF870FA1C4FF0007025F058F87878307064E0C0468D4502001596020061
:201A6000302026F0EBFA2C46071C59D0109D302229461CF097FD922038707D70A07B0328C2
:201A800038711CBFE088F88004D1B81DA11D082227F0E4F9E07BB873208A38826088788290
:201AA000A088B882608AF882207D3876667D284606B101207876607E00B10125BD76A07DF9
:201AC000F876E07D387794F918007877E069386294F8200087F82400A08DF88494F82E0063
:201AE00087F82800A08C7885A08C1AF029FFF862B0B1A16AA28C27F0B1F9207D26F0DCFF75
:201B000030B9F86A22F0A6FE384626F08FFB07E00079394621F094FB02E028460CF074FF68
:201B20001098012803D00F9826F080FB03E00F99887821F085FB0E9880F4004017B0BDE8E7
:201B4000F08FC046504F0020726500207C052043004E0020FD7902002DE9F04F04464FF69C
:201B6000FE70ADF15C0D217AADF85400606808AA13F0ACFC002800F063849DF82200022857
:201B8000B4BF012700279DF824000228A8BF0027BDF82A104FF0000A4FF6F87088420ED085
:201BA0004FF6FE70401F884209D04FF6FE70001F884204D04FF6FE70C01E884200D1574637
:201BC00027F052FF9DF82310884240F03984002F00F03684208D9DF82660678EADF84C0097
:201BE000ADF82E7056B161689DF821209DF83C30012027F07BF9002840F022849DF8257027
:201C0000DFF8C4B2DFF8C4825646002F4BD19DF83D00574658BBBDF82A00034622F0BAFD00
:201C20005546022808BF0125002D9DF8225018BF012759460988994208BF47F0020727B1D5
:201C4000002D14BF402120210F43184622F0A2FD012808BF47F00107002D3DD012980078F6
:201C600027F00AFD012818BF27F0010734E09DF8411041B1FF2906D09DF84000119A24F0A9
:201C8000D7F850B128E0B8F83A00BDF82A10884205D098F84A0004281ED101261CE09DF847
:201CA0002650222720E0BDF82A10FF2025F0BEF9002804BF3D1C082708D09DF8250047F04F
:201CC00001052C2740F001008DF8250005F00305012D08BF47F011079DF8265007F002008B
:201CE000304308BF47F0800795B998F82F0078B107F0220022280BD007F04200422840F0A5
:201D00009F8312980078062818BF072840F09883F8094FEAA71555D398F832001299BDF8C0
:201D20002A2080080AD20878C01E01282CD9001F2AD0C01E28D0801E26D003E00878401E25
:201D40000A2821D9BAF1000F1ED1B8F83A00904240F076830D780520BDF82C408DF8110068
:201D600004A826F023FA002800F06A830269032313271370511C0F704C7022128A70CD701E
:201D8000448009F051FC5BE368081BD30878032802D148780D2815D09DF8280038B1BDF8EA
:201DA0002C000E990EF024F9012800F045839DF8270038B1BDF82A000D990EF019F90128F1
:201DC00000F03783B8F84800B4F84410884209D1CDF800A0208DB4F8421094F84620534622
:201DE00013F0FAFB9DF82600002847D0208DB4F8421024F0D7F99DF85190061C26D1B9F129
:201E0000000F12D198F89000012839D112980078062801D1680833D2BDF82E104FF6FE7040
:201E2000401C884240F0BB800AE3042026F006F9011C00F005836420087001274F70208DC6
:201E4000488098F8000021F0FBF9F9E29DF821106068F5780A18537BAB4203D0F3705046A6
:201E60007060606840180421401C26F0CDFB7168814200F2E582401C706001E09DF851909B
:201E800098F832008008C0F0DB82B9F1000F24D0BDF82C0026F09AFFD0B9A349A34CBDF895
:201EA0002C000B6822699901A1EB83019047012840F0C6826169BDF82C008847A168BDF89E
:201EC0002C008847BCE2C0468A180020501800206168487800F0DF0048709DF8320038B159
:201EE00061688879401E8871C0B28DF8320008B907F07F07380924D39DF82500F9084FF424
:201F0000805A14D279091AD3811011F0070F01F0070604D0072E1CBF761EF6B20EB907F00E
:201F20007F0700F0E30040EA8600C0B205E020F01C00C11021F0030108438DF82500616871
:201F4000087298F84A00042800F0FF81092800F0FC8117F0610F40F0EB809DF82200012801
:201F600011D112980078052800F0D68003280AD1BDF82A0026F02AFF28B1218D08A815AAD0
:201F8000002300F0C1FE9DF8320068B99DF82200012804D112980078032800F0518208A812
:201FA000214620F071F94BE226F0A6FB002840F047829DF83D0000286DD19DF82400BDF895
:201FC0002A10FD100028ADF854102ED13A0930D29DF82220012A28D0084600211CF0FAFFD7
:201FE000002620B14079012816D0022814D0BDF85400B4F8441024F0D5F828B1807826F043
:2020000050F808B1082807DBBDF82C0026F0DEFE18B104208DF824000126BDF82A10002E00
:2020200008BF022272D09DF824006A0838BF002300D340230DF13D021DF006F830B1616806
:2020400008784AF0200A00F03F0008709DF83D0040B1BDF82A1010A822F07CFB4AF0400A7E
:20206000ADF854009DF82200012806D0BDF82A00BDF82C10002219F04FFC68082CBF4022AE
:202080000022BDF82C10BDF82A0016F095F808B14AF0200A33E09DF840009DF84110119A25
:2020A00023F0C6FE00282ED09DF8410038B9BDF82A00ADF8540027F0F9FD00BB1DE0119915
:2020C0009DF8286001EB400030F8020C002EADF854000CBF082010209DF827600EB1083024
:2020E000C0B29DF82560002106B1012140186168401CC2B2505C401E50544AF0400A25F022
:202100005FFD8146A6E0BDF82A100B22BDF82C0000231CF051FD93E1218D08A815AA0023E8
:2021200000F0F2FD8CE1C04630B80200E04E002078084FF0000967D39DF83300B4F828B0C7
:20214000C14D494616900920EA79169B934206D1BDF82C302A88934201D1AE782EB9401E7E
:2021600005F1080501F10101EED1092921D0AE79E6B1B8F84810584625F060F808B1761E68
:20218000AE71B24833210279FF2A02D00288934504D0491E00F12400F5D102E0A879401E83
:2021A000A871A8795228A4BF4E46AE7127F060072AE025F005FD81469DF8320028B9BDF892
:2021C0002C00218D814202D11EE0BDF82C00B8F83A10884202D198F80500A8B1218D08A8CD
:2021E0004A4611F047FE58B1380932BFBDF82A004FF6F870C01D4AF0040AADF8540003E041
:2022000027F020074FF00009B8094FEAA71510D394F8460094F8476094F948308DF8100000
:20222000E26B8DF8116004A98DF8123008A804F061FA68080ED3218D08A815AA4B4600F0F9
:2022400063FD5FEA000905D012980078012808BF4AF0100ABDF854104FF6FE70884208BF34
:202260004FF000097A481B30007801282BD1618E4FF6F870C01D884225D0218D884222D0CA
:20228000BDF82A204FF6F870401C90421BDDBDF82C00884217D027F009FDA0B101790129C8
:2022A00018BF02290FD101218DF810104088ADF81C0004A820F0E6FB28B105A820F0C0F900
:2022C00008B125F05BFA37F07F0000F0B980B9F1000F00F0B58020891AF032FB071C00F03B
:2022E000AF806168228926F0B9FD002505959DF822008DF81000CDF80090CDF804A004AEF4
:202300000295BDF854100396228D237A384616F0DDFFB0B998F80100002800F091808DF820
:202320001C908DF81E508DF81D50BDF82A00ADF81A00BDF82C70ADF8187006A826F0D2FE5C
:202340007EE0384622F086FA7AE05946BDF82A000988814209D022F01DFA022805D09DF84D
:20236000250000F0030001286AD19DF8220000284DD012980178042903D19DF83C100229B5
:2023800040D00178072905D19DF83C2098F80000042A06D0032953D108A8002114F026FEE0
:2023A0004EE04FF480611FF0E3FD092088F84A0027484178022904BF0021817726F012FD95
:2023C00001460D9826F004FC012839D1102025F035FE07460E991298401C8FB302223A7046
:2023E0004378027802EB03227A80807878704A2022F012FF9DF8260010B9164905200870AF
:2024000039461EE5002008A90CF0A0FD18E094F8460094F8477094F948608DF81000E26BAC
:202420008DF8117004A98DF8126008A804F062F906E0BDF82A0001E0BDF82C0020F02AFD35
:2024400017B0BDE8F08FC046B40100201409002084510020504F00206F4A2DE9F04FADF119
:202460004C0D10780F91090C80F01F840F999046890B80F0F0830F99890980F025830F99C4
:20248000490980F0A7820F98DFF898B1C00980F02E820F98000A06D321F0A0F90F9880F056
:2024A000800000F021BC0F98DFF87091DFF870A1400A80F0B9800F98000B80F096800F9995
:2024C00098F80300490B80F086804C460F99606AC90B6AD20F992078890838D20F98E188A0
:2024E000800A17D20F98000906D301200F9F88F8050087F00800F7E30F98C00A08D3B8F837
:202500004800012121F0CCFE0F9880F48060EBE30020E9E3B8F84850A8F848105020A11D53
:2025200022F07AFEE6881E2754466089854205D0864204D0204626F014FC00E066817F1EB3
:2025400004F11C04F1D10F9880F40070CCE340B301A827F0AFFB27F07BFA59460546032074
:2025600091F8228091F823608DF80D0003A825F01DFE071C15D038690B2100F8011B00F8D6
:20258000018B06700126BE7726F02CFC78627D807E7701A838620023BE763846237009F02F
:2025A00043F80F9880F002009EE380B159461431097801290BD18047A06A00B1804798F8D1
:2025C00000004FF480414FF47A7227F0ABFB0F9880F4804088E320B1002088F8030021F040
:2025E000F9FD0F9880F480507EE321F0F3FD5946087A01280BD1497A49B198F800004FF4E2
:202600007A7212FB01F24FF4006127F08BFB0F9880F4006068E3C04650180020E04E0020EB
:20262000CC0500208451002027F024FA4FF6FE71814200F0588198F832008008C0F0538171
:2026400000252C46284625F00DF8071C19D03879012816D0022814D0F879411CF97198F8B9
:202660008B1081420DDABC727C72388824F080F8388801A925F0EAF901A81FF0E1FF25F09E
:202680007DF86D1C332DDDDBAAF11C051E26129435F81C0F4FF6FE7181420DD0287B98F89F
:2026A0008B70411C8742297306DA20462746A87428886F7424F05CF8761EE9D14C4603218F
:2026C00004F1380010F8047F0FB17F1E0770491EF8D1B84E4FF6FE79332709F1010936F8F0
:2026E000240F81451FD001208DF804007588ADF8105001A820F0C6F9A8B1AAF11C041E2577
:2027000034F81C0F3188814208D0BDF80610814204D002A8A11C26F05BFA10B1204626F09D
:2027200020FB6D1EECD17F1ED9D1129C1094204624F098FF58B1017931F0040107D1807A11
:2027400025F0AFFC18B11098401CC0B21090641C332CECDB25F0AEFB129D061C0ED02C4655
:20276000204624F081FD28B1807C25F09AFC08B16D1CEDB2641CE4B2A642F1DC1098401934
:20278000C7B2002F40D0B8001AF0DAF81190002808BF129F3AD0BA00FF211BF003FF129C0D
:2027A00025461098A84218DD204624F05BFF031C10D0187930F004000CD1987A25F071FC2E
:2027C000011C07D0009718885A7A119B1AF0D3FD6D1CEDB2641C332CE3DBBEB1129C20462C
:2027E00024F042FD051C0AD0A87C25F05AFC011C05D00097119B28886A7C1AF0BCFD641CEE
:20280000E4B2A642EBDC01E01298119098F83000002808BF4FF0620805D026F05BFBC0F1FD
:2028200054005FFA80F80320B8F1600F98FBF0FAA8BF4FF01F0ADDF844904FF6FE7BABF1E9
:20284000020BB8F1000F0EBF129D2025DDF84880BA45A6BF3C1C45F040055446032014FB53
:2028600000F0801C8DF8050001A825F09FFC4E46031C26D01869082104F01F02017045EAE1
:2028800002014170801CA4B12246C01E361F16F8041F00F8031F318809124170B17801F00E
:2028A000070CF178521E01F0070141EA0C118170EDD1A3F802B001209876184608F0B4FEB8
:2028C00000E00120E90906D2641EE4B20CB109EB84093F1BFFB205F040052843B1D01198FD
:2028E00008B121F0B7FF0F9880F48070FCE1B54C092500214FF00409A078002841D0401E25
:20290000C6B26079A67026F02BF9071C38D06EB9787B022804BF0620787331D006207873C1
:202920003868407BF02121F005FA29E0A6791EB9787B032812D023E026790EB3E078401E03
:20294000C6B2E670E6B998F82500E0702079401EC6B22671787B032812D126B9204639463A
:2029600021F0B8FF0CE087F80D9027F074F900F00F00401C388198F8000020211EF094FF7D
:2029800001216D1E04F10804B6D198F80000012912D040211FF0ECFA594691F82900012896
:2029A00014D1002081F8290018F07CFA24F0E6FE0CE0C046F0080020402121F02BFF28B973
:2029C00098F800004021642227F0ACF90F9880F0400089E1102121F01DFF30B998F800002C
:2029E00010214FF47A7227F09DF9C148DFF80483417808F5C674491ECFB217BB01214170E6
:202A00000020052125F082FD071C1BD006253846052125F07BFD0646388978B1401E80B2AC
:202A2000388158B97889C00802D3387B23F088FE7D733868407BF02121F07CF9371CE6D1F6
:202A400000E0477064274FF6FE7600252079A0B1FF2812D0401E2071C0B270B960790328F5
:202A600005D16088218802221EF0AEF86079012803D0268066806571A5717F1E04F108042C
:202A8000E4D108F1DC040827207A401E2072C0B230B99948214623F0A3FF90B966802570D3
:202AA0007F1E04F10A04EFD1944A0C2112F8080F08B1401E1070491EF8D10F9880F010009C
:202AC00012E120F0ABFDE4E7202121F0A3FE28B9D8F81000002808BF012616D027F0EAFAD5
:202AE000044626F0A9FF4FF47A716043B0FBF1F1D8F81000002808BF002004D088428CBF98
:202B00004FF0FF30081A460867D00020042125F0FDFC071C61D0FF244FF0FF3B06254FF0F3
:202B2000010A3846042125F0F1FC10903889864204D8801B83B23B8113B14BE0002038818C
:202B4000BB7B012B02D17889C0083DD3002B36D08DF804408DF805408DF806B03968086A55
:202B6000C97F02AA12F0B2FC4FF00009012808BFD1465FEA09001DD0788A40F08000ADF8CC
:202B80003600B87B8DF838007889000908D3BDF8360040F48070ADF83600387B8DF83A00CE
:202BA0007B6913B1187BADF8180001A9002202A803F0A0FD7D73387B1BF040FA0AE087F8C6
:202BC0000DA007E0B40100207D733868407BB72121F0B0F8109F002FA3D10EF0E7FD98F8EC
:202BE00000300020012125F091FC18B1184620211EF05AFE0020042125F088FCB3B278B187
:202C000042460789147825F081FCF8B9BB42AEBF0027FF1ABFB2204627B920211EF044FEDB
:202C200000200DE07A00202127F07FF827F042FA044626F001FF4FF47A716043B0FBF1F02E
:202C4000C8F810000F9880F020004DE00289BA42D8BF171CD7E727F0A3F8294C0546201D82
:202C60000068074698B157F80C1C98F8000021B94FF400511DF044FF03E04FF400511EF00C
:202C800013FE204639460022001D23F059FB284627F00CFA2FB13846FEF75EFF384625F0CA
:202CA000C5FA0F9880F400501EE01EF0CFFD071C17D0144920310A78FF2A0FD03C780B46CB
:202CC0000020944207D0401CC0B2C200D1189A5CFF2AF6D102E0496838468847384625F055
:202CE000A5FA0F9880F4004013B0BDE8F08FC046745C002020010020293F020044020020EC
:202D000088570020A4B402002DE9F04F064693460020ADF13C0DABF80000B06A0993034637
:202D20000078884626F0A8FC48B17089044621F031FD022804BFABF80040B36A01D000203A
:202D400009901878C84DDFF82493401E0A2800F20B84DFE810F02F03B3020C049F028D01A9
:202D600051010904BE00880066000B00BD4C207D012840F0F9835B1CB06913F8015B1F7834
:202D800026F0C4FF002800F0F7830379002B00F0F383032B80F2F0830E2D1CDCDFB9D049C4
:202DA00007752DB901EB85010A6BC261096B0AE001EB85010B6B9A01A2EB8302C2610A6B1C
:202DC0009101A1EB82018161012180F8201024F0D5FC002500E001250320B689A47F8DF88C
:202DE000190006A825F0E2F9071C00F0C58338690C2100F8011B00F8015B04700124BC77BF
:202E000025F0F0FF786204A9304624F01FFE10B17C7704A838627E80BC76384608F004FCE0
:202E2000AAE35C1C207820F01F0700F01F00012840F09A83641C04A8214626F097FF28468D
:202E400004A95D3025F0C4FE002800F08D83002F40F08A830834A2786178207801EB0221F7
:202E600022F094FD88E3688F7189884240F07C835C1C14F8016B04A8214626F077FF28465D
:202E800004A95D3025F0A4FE06F01F0726F01F06002800F07183002E40F06E83780019F00E
:202EA0004FFD011C00F0688367B184460834384663782278401E04F1020402EB03222CF82E
:202EC000022BF5D1009109F03EFF084621F0C2FC52E35C789A1C34F07F0704F01F0E40F061
:202EE0004B83377F03201EFB00F0801CC1B2B94240F04283002714F01F0F04BF4FF6FE7C48
:202F0000614618D0D9789B7870464D4603EB012C5378117812F802EF01EB03213EF0770353
:202F200040F02A832B888B4208BF0EF00707521C401EEDD1BFB960464FF6FE72824212D05E
:202F400004F06002602A0ED04D462A88A30907D2E30902D2904203DD0EE3904203DD0BE3E6
:202F60009142C0F20983B08926F0A0FE002836D1B0894FF6FF7124F061F9041C14D123F0B0
:202F8000F7F8041C00F0F88200211C221BF00AFBB0894D460E35208028886081AA23A37425
:202FA0000222227401216174207C032805DB0220072F2074BCBF7F1CFFB267740020207378
:202FC000A01C25F012FB002840F0D682307A002800F0D282B169A01C26F0C8FECCE20021CC
:202FE000C171017A032905DB0221072F0172BCBF7F1CFFB24772BFE2484671890088884251
:2030000040F0B282307F022840F0AE82AA4C201D00884FF6FE71814240F0AE82162025F036
:203020000DF8071C00F0A88201213970B07900280CBF081C02207870B06A4078B872000934
:2030400002D2B08922F0D8F9B169B81C26F08EFE0020F8742878394620F0F2F8B089A080F2
:203060008AE2C04684510020501800208A180020708921F08FFB002840F076825F78B949E2
:2030800087B10C2F03F1020380F276828C463D465A7818786D1E03F1020300EB02202CF8EE
:2030A000020BF5D1484675890488DFF8D892AC4200F0B180B37C002B00F05E823B1C0A97B3
:2030C0004FF0000811D0A74A38464146921E32F8023F9C4206D0401E01F10101F7D104E005
:2030E000DCB702000A914FF00108284600211BF071FF00280B907DD0407901287AD10B986E
:20310000807910F0180F75D00B984188384625F035FD10B9B8F1010F6CD109F2AC404FF62E
:20312000FE754FF000080C97B6F80CB008904FF0010A0D95C14611E0B8F1010F08BF4FF08D
:20314000010908D026F087FDC0B290FBF8F101FB08F1A0EB01094FF00008C246089D1E274A
:203160001C3D35F81C4F4FF6FE70A04213D0A34511D00C98214625F001FD60B96B7C53B1FB
:20318000072B08DA08F10100BAF1000F5FFA80F801D1C14521DD7F1EE3D1B44D332735F8E7
:2031A000244F0D98A0421AD0A34518D00C98214625F0E4FC98B96B7A8BB1072B0FDA28792D
:2031C00001280CD002280AD008F10100BAF1000F5FFA80F803D1C14501DC0D9407E07F1E85
:2031E000DDD1B8F1000F02D0B9F1000FA4D00D980B994880B37C5B4C581EB074F77C0097DF
:203200000A9D0195029401220392B189B269708917F0A6FDB0E1B4890C2F80F2AD818846B4
:20322000ADF81040BD488DF812700168CDF8148009B104A8884720461EF0C0FB0C2803D15F
:203240004FF6FE701EF0BAFB0C2880F2958109EBC00505F59675686808B121F0FBFA2FB10F
:20326000780019F06DFB686010B985E1002068606C80C3486F70007828706878002800F0A8
:203280007B816868002800F077817A00414625F0E5FD71E1307F022840F06681099828B996
:2032A0004D4671892888884240F06681099831460BF04CFE5FE1C046E04E0020B5F84810FA
:2032C000404622F06FFFA846074608202FB17D781DB90221397007257D70B16A0A79CC7813
:2032E0008B794D7891F802A0CF7904EB02244A7902EB03296A0928BF1020AA0924BF083049
:20330000C0B235F0700340F03781327F904240F0338105F07005680938BF002006D306A8DB
:20332000083126F023FD25F010050820A90907D3B16A091804A8083126F018FD25F02005BA
:203340002046514623F096FD08280DDA8D4B410001EBC001C9188879B84240F30D818F7150
:20336000002002E03E0100200420B8F83A10A14219D048B9B189484601222B4610F0ACFBFE
:2033800028B1F9E020010020042840F0F58006A804AE009049463A4653460196204602953D
:2033A00013F0ECFBE8E0B189484601222B4610F093FBE1E0B5F84810404622F0F3FE4FF0E3
:2033C0000609041C03D06078002800F0CD80B06A817847780891C378017900F1050A03EBA0
:2033E0000120099040461FF077FF9AF8001009185FFA81FAB80928BF4FF00E0937F07800D4
:2034000040F0B28007F01800182800F0AD80307F814540F0A9804FF00009CDF800900899D2
:20342000B089524643461BF049FE032800F09C80002807F078074DD117F0180F18D195F849
:20344000310028B1B089414601223B4610F044FB09984FF6FE714A463B4610F03DFB0028F9
:2034600038D14FF6FF70ABF8000039E0F008002047F00107780928BF47F00207B08939461C
:203480001BF0A8FD90B1817911F0180F0ED0417901290BD154B14088B5F8481022F082FE17
:2034A00020B1437813B1607898425DDCB089414601223B4610F010FB60B94FF6FF70347AE7
:2034C000ABF80000002C0CBF4946B169B089524625F074FABBF800104FF6FF70884243D100
:2034E000012000900899B089524643461BF0E6FD0998394621F036FE698F81422ED1099872
:2035000026F0D4FB60B10079012818BF022807D1099804A924F09AFA08E0C046904F002057
:2035200025F060FC014604A826F020FC307A012803D1B16906A826F019FC06A8009004AF6A
:203540000197B06A407840F0300002900999089BB0894A4613F012FB48460CE0B06A80F8E5
:2035600005A024F02DFB06E04FF00009F4E70999304613F03BFD099009980FB0BDE8F08FF1
:203580009E510020FC0100202DE9F04FC24C04F128000768ADF14C0D17B1002087F845006D
:2035A000DFF8F082002517F148030BD0BF6DB84E73612FB940460068D0F84C0580477369D7
:2035C0005868706026F0ECFB1190082015F0F6FF1CF076F9464610B1B2A026F063FD1EF0FD
:2035E0004BFD684625F058FF042069468DF80000284626F02BF9E06325F0A4FE09A826F0A8
:203600008DF8042009A98DF82400284626F08EF8606325F0A1FE0DA826F090F804200DA9F8
:203620008DF83400284626F091F8616BA06319B9A4A026F037FDA06B10B9A7A026F032FD35
:20364000E06B10B9A9A026F02DFD3068D0F8E00380473068D0F8180280473068D0F8F00230
:203660008047404600682F460726A03001687B5823B11846804740460068A030761E07F1A4
:203680000407F3D1D0F8B8028047EB2026F0F8F9A06A2F4670B105A8FF2108221AF082FFDE
:2036A000A06A05A9082224F0B1FD04F12806012818BF3768924A0CCA05A8391C80E80C007C
:2036C00021D1082019F03CF95FEA000856D0A8F10206032726F0BFFA06F8020F7F1E4FEA9C
:2036E00020207070F6D12020F82706F8020F4146082204F1440088F8077025F0AFFB40464F
:2037000021F0A8F804E004F14400082225F0A6FB0120082105AA26F05BFA04F14406002830
:2037200018BF092826D124F0DDF980081DD205A8FF2108221AF036FF07AFFF210822384675
:203740001AF030FF0120294608223B4625F026FF80B9384605A9082224F058FD28B930466C
:203760003946082225F07AFB04E001200821324626F034FAE220314621F04EFD24F0B2F998
:20378000400834BF2E1C0126CA4F5520012107F1420226F01DFA18B916B1284623F072FCDD
:2037A000C54FE22007F1440124F024F830461FF015F905A8294610221AF0F4FE3846407873
:2037C00030F001000FD1BD4F05A91022384624F01DFD28B905A83946102225F03FFB02E0E0
:2037E00005A823F03DF86220102105AA26F0F0F928B926B16220102105AA26F0EFF905A8AE
:20380000294610221AF0CEFE304614F02DFB304621F0C6FC304614F09FFD1EB128460121D1
:2038200022F094F9242019F08BF80028206400F0A481E06A216B221D1CF0C6FD15490968A5
:20384000D1F84C138847216C201D0860E06A216B04F108021CF0B8FD10F0A4FB216C04F188
:2038600008004860E06A216B04F10C021CF0ACFD04F1300904F12C08D24ED34F3070D9F800
:203880000010D8F800C0266C2B4607F1100005E00053002014010020A434002006F1080EEB
:2038A00034E0C04652616E646F6D5F736565644175746F6D617469632829206661696C6574
:2038C0006400C04641455343434D206F70656E206661696C656400C0414553454342206F89
:2038E00070656E206661696C656400C054524E47206F70656E206661696C656400C046C0E8
:20390000D0BA020040F823505B1CDBB2002BF9D07D61CEF80020604604F110021CF054FDAA
:20392000BE4F654EB870308EB880BB4831463D703C3126F01BFA04F110033046216C90F857
:203940002500CB60D9F80010787006F14C00F860D8F8000004F114021CF036FD04F1180A82
:20396000AF49B14AAF4E0870B04BBE60206C7A6204F11406D9F800100661D8F80000BB621A
:2039800052461CF021FDAA4EF071022286F824204FF6FE70B08325F025FAA6489E4906F140
:2039A000140B0560584626F0E1F9A348FF2138221AF0F8FDA148A34B8360A34AC260A049DF
:2039C00041600570A14B0361A14A4261A3493961A04B8361A04AC261A14B7B61A14ABA61C3
:2039E000A348A14BA14AFB61A3491061A14FD16006F13000976014F0E1FD09270BF12C00D3
:203A00007F1E40F8045BFBD1F07948F2010120F005F8F0794FF4004120F000F8F079212154
:203A20001FF0FCFFF07922211FF0F8FF206CD9F80010C0F814A0D8F8000004F11C021CF002
:203A4000C3FC8E4E48F2150130701FF0E7FF307838211FF0E3FF8B4F0222F7608A4B86F84C
:203A6000282087483361216C70614FF6FE7704F11C0304F12002D8F800008B61D9F80010BB
:203A800037841CF0A1FC814AD580D5609570556101271574064615700648177148F202011D
:203AA000467030461FF0BAFF48F2010130461FF0B5FF05E02452002084510020ECB7020088
:203AC000304648F204011FF0A9FF714E71483D49714B3061714A4B60084604F12003826081
:203AE000D9F80010226CD8F80000D36104F124021CF06AFC6A4B20706A499870284626F042
:203B000019F86949384626F015F86849042026F011F86749062026F00DF86649072026F070
:203B200009F86549082026F005F898784FF6FE71491C1FF073FF61487049614B8862614A4E
:203B40005A606148614A98600B46DA621846604A83F846705F4F0263604BB7605E4A604F6D
:203B60001848604E1360604AC76003461F461E61206C7A6104F12406066216F00AFB14F0C9
:203B800047FA119826F092FA11F07EFA24F026F95B480068D0F8D40090F8430024F030F93E
:203BA00057480068D0F8582429460120904725F0C3FC4E48524F05707868C068007860B93A
:203BC00004E0C04634560020004E002038460068D0F8582428460146904719F001FB44489C
:203BE000058145812B460360434A43604148072123F088FD18F018FE21F0F0FA21F0AFFC57
:203C000040484078022804D14FF40040012117F003F813B0BDE8F08F785300204453002035
:203C20002457002021430100E5A801005D970200504F0020745200207C01002094550020B5
:203C4000E9A200004D840200690502000F6302009D7B02005D5C02002D810200B189010062
:203C60008D720100557B020089BA000064560020E9650100B1DA0100055B01008053002026
:203C8000B5560200516F0200A5770200545F002050560020259502003F9B0000853502004C
:203CA0006857002065960200299602003D96020051960200659202007D9202005D3102000F
:203CC0007455002095460200D52A0200854F0200B53F0200134602005C180020C53D02005E
:203CE0003D7F0100351702009D3E0200B166002044660020EC000020319E02002452002068
:203D000014010020845100202DE9F04FCA4CCB4DDFF838B3DFF838930F46380CADF11C0D32
:203D200080F05782DFF81883780880F0FD81C64EB80880F0C181B80980F0AA81DFF804A3FA
:203D4000F80B80F04E81BB480668780980F02981380928BF87F0080080F05483780A80F035
:203D6000BA80F80880F0AD802069F90980F09080380A63D2B80A5CD2C44C380B2BD2F80AA8
:203D800027D3142018F0DCFD061C1FD00025A846207A012813D10096042029464246142361
:203DA00021F048FB58B92068306060682946142233467060042022F00FFA84F808806D1C04
:203DC0000C34032DE4DB304620F044FD87F4806018E3002016E3182018F0B2FD061C25D078
:203DE00000252434A846207A012813D10096062029464246182321F01DFB58B92068306170
:203E000060682946182233467061062022F0E4F984F808806D1C0C34032DE4DB3046414619
:203E200018221AF0BFFB304620F014FD87F40060E8E219F02DFC87F40070E3E21CF02CFB33
:203E40002078052818D1E07904211EF091F8E07904211CF055FE062025F078F8287800F087
:203E60000700022801D025F0B9FC23F087FC19F00FFC23F057F801E023F080FC012023F0C6
:203E800001F90320012104F09BF987F08000B9E2A0B118F019F920690668206920F0DAFCF8
:203EA00026615EB1F28802E0F088801AF0803668002EF9D1E079402125F037FF87F040003C
:203EC000A0E2FF20032121F041FE25F0DFFDC34901200860FEE7424692F84A00082818BFFF
:203EE00004285BD124322120742125F077FEBC4D6868298800241BE0A30003EBC403C65C91
:203F000036F07F0212D016F07F06C654034405D101A8FF210C221AF045FB01AB01202146E1
:203F20000C2222F059F9284629884068641CA4B2A142E1DCB94C4FF0FF0855460026E0695D
:203F400095F8211080291FD169798DF809102A798DF808206B88ADF806302888ADF8040013
:203F600085F82180297D8DF80C10EA798DF80B20AB798DF80A30A86904903146102201ABEC
:203F8000032022F029F9E069761C2435332ED7DB00B180470020022121F0D8FD87F4807077
:203FA00030E24EB17168087818B1486800781BF01BFA3668002EF5D125F05CFD1C34208096
:203FC00024F010FF484608300078012806D1444620784FF40061642225F0A7FE87F01000F3
:203FE00010E20120022123F029FBC4B294B3E00018F0A6FC5FEA00082ED083464FF00109AC
:20400000554633262879012818BF02280DD18DF804906888ADF8100001A81EF033FD20B18D
:2040200002A9584625F0A2FE8346761E05F12405E8D111E074570020504F002070650020BD
:204040005018002014090020985100206C650020845100204FF00008B8F1000F12D074B1A6
:204060000F204FF6FC768DF80C001F25ADF8046001A922464346AE48009515F023FE4046AA
:2040800020F0E8FB87F48040BCE1C0463C510020207A50B92078062802D1072024F056FFD6
:2040A0003078012801D124F061F9E07910211DF0FBFB87F02000A5E1207A00BB2178E079FE
:2040C00008291AD124F046FB092024F03FFFB6480078052806D0072809D10720012104F035
:2040E0006FF804E0012023F0D5FB1CF0D5F93078012816D124F03AF913E010210FE025F070
:20410000ADFCEF2803DB002023F0C4FB09E025F0A5FC1030C0B225F0B3FCE07901211DF072
:20412000C3FB87F002006DE1012024F00FFF5D466678287900F007011220012918BF02293F
:204140003DD1E6B1032E1AD0012E38D1012936D10A2024F0FBFE444620784FF480611DF0AC
:2041600007FF502005A923F045FBBDF81400A4F84800BDF81400002120F092F826E025F07C
:20418000F5FA002818BF032E15D1022024F0DEFE9E49E06809781EF0EDFCA97909090ED24D
:2041A00070B99B4A5178491CC9B20429517004BF9849E16003E025F04EFD12F0A7FE28B1B2
:2041C000E07901214FF47A7225F0AFFD87F0010018E1DFF848924FF0000A0AE17C0520433A
:2041E000805700204146904823780E784278701E00F0DC80401E13D0183800F0F480B938CE
:2042000000F0ED802A3840F0E68083480168002900F0EC8040468847E8E0C0469455002064
:20422000012A18BF022A40F0E18099F820004E46072818BF082805D1227A1AB9012103F0EA
:20424000BFFF2378032B75D00A2B11D0042B14D00D2B12D00E2B10D00C2B0ED0002B00F006
:20426000C58022F05FFEE07910211DF01DFBBDE0287800F0070001285CD0237A607833BBEF
:2042800084F80BA0504630711FF0E8FFB8B1062024F05CFE9BF806000BF10406000904D34E
:2042A0004FF40040012116F0B7FC307800F00700022801D025F092FA22F034FE96E0052086
:2042C00024F044FE42F2107024F040F88EE0012819D1E07A401CC0B20428E07204DB5048EA
:2042E000007801280DD00EE04E4800884FF6FF71814206D003206070012666710423A372B9
:2043000001E084F801A022F083FB21F0C1FC0BF106000078000903D34348007D012865D181
:204320006078032862D10820012116F075FC5DE0D0500020237A002B33D1E07910211DF0A6
:20434000B3FA1FF08BFF28B320780A2808D1297801F00701022903D032490822891C0A703D
:2043600003280CD122F0DEFD96F82000022806D1012022F087FE0220012103F021FF062064
:2043800024F0E4FD287800F0070002282ED025F025FA2BE0052024F0D9FD012020F09AFB55
:2043A00024E05046FAE7C04644520020022B1DD1012A18BF022A19D125F0CEFB10B115F0EF
:2043C00095FF98B125F0FEFB00280CBF5046012020F040FF0AE040461BF076FD06E040469F
:2043E00016F02CFA02E0404610F0ACFC404623F01DFFE0791DF02AFA5FEA00087FF4F2AEDE
:2044000087F4004007B0BDE8F08FC046655200206C52002000F8FF078C53002024520020B8
:204420004553002098180020845100202DE9F04FB54CDFF8D8C294F8207088465FEAD8002D
:20444000ADF1140D80F092825FEA184006D3DFF804B34FF6FF7AAAF1010A59E16046007855
:204460005FEA5831A0F1020080F03181B84DA91D09885FEA182280F0EA805FEA980180F0AA
:20448000D1805FEA183028BF88F4006080F055835FEAD81080F0A280E7685FEA98305DD2DD
:2044A000A0695FEAD83138BF0020C0F04683A74928C96A4628C209881180676938B9384635
:2044C00024F014FFA061C0B997B90B2011E0017BFF2906D031F07F000FD101F07C0104293A
:2044E0000BDBE06940B9384624F000FFA06120B9002025F0CBF92EE0A06160784FF4804145
:2045000041F2883225F011FC94F82010A069082919D00188ADF80010017A8DF80810017BDB
:20452000491CC9B231F07F07017306D10188427A684623F03BFFA06909E0008800210A467E
:2045400021F0AAFCF7E7017B41F040010173406924F0CCFEE06188F48040EEE2DFF8C0B247
:2045600000264FF0030AB14687B96078012E04D04FF400511DF0FCFC05E04FF400514FF462
:204580007A7225F0D2FB88F40050D6E27D68287810B3F02820DC51464A466B461FF0B0F8DE
:2045A000D0B1029803889BB984F83E908DF80DA08DF80C9003AB0A20494652461FF0F8FE60
:2045C000DBF8001084F83E9031B12878884703E001880126491E01803F68C5E71FF0AEFAD8
:2045E00007462078BFB1401EC0B22070A0B160784FF4804120F00EF930B9606924F076FE88
:2046000010B938781CF048FF6078402143F6982225F08BFB207810B90B2025F037F988F0BE
:2046200040008AE2B0F1FF3F18BF00280CD168460021082219F0B6FF684616F061FE18B180
:20464000607802211DF030F988F0020075E2084600211FF02BFA28460678FF24C6B14FF6EA
:20466000FF75001D00212B4610F8142F52080BD3C7884FB1BB4207D055B10289BF1ABAB29B
:204680009542C4BF0C1C151C761E01F10101EBD1FF2C19D02E49A00000EB04104018183059
:2046A0000189C088401A80B250B929484470FF2009F046F8FF2120460A461FF09BFE00207A
:2046C0002349C88023F0A2FE88F0800035E2B0F1FF3F18BF002814D13846401E0CD0801E4B
:2046E0000FD194F8220002280BD1012084F82200002020F0EFF904E094F82110002021F07D
:2047000081F888F4805018E2245200208551002060781DF09BF8051C08BF88F4004000F042
:204720000C822F78D32F00F0098194F82000B84212D00A2F40F0168194F83F002871A16AD1
:20474000002900F00F81A81C88470BE174B20200545F002050180020B94840787F1E00F068
:204760009680BF1E40F0FE80012818BF022840F0F980AF787FB37F1E40F0F4806F7860786C
:204780001FB325F077F94FF6FE720021824218BF0121081C04D15846408F1146814209D0D6
:2047A00010465F46ADF8100004A9A7F83AA0532020F032FD22F02CF921F06AFA5946002006
:2047C00081F84A0019F06CF8CCE0022140F6B83284F82210A7E06878002854D125F0F2F958
:2047E00000210E4603460BF1080063621F460160002F44D1002B38D0002E1F4635D0B14666
:20480000C64823F05FFC01280CD08D48408E4FF6FF7181420CD03988884209D01BE0C046BB
:2048200078550020BD4807F10C0124F0D1F990B1BBF83E003989884201D1824501D1FB7807
:204840004BB19BF836007979884209D17C48B979807B884204D0384621F052FB761EF6B256
:20486000BF69B9F10109CBD1636A226B002AA9D0184631469047206B002873D1A2E7BF696F
:20488000761CF6B2B4E7002020F0E4FC6AE0012818BF022866D16F7894F845003FB194F854
:2048A0004410491CC9B2884284F8441043DB94F82100401E04D0401E3AD0401E1ED051E048
:2048C00024F054FF98B994F8460020B1E06A002848D0804746E0002102200F468DF80800E1
:2048E0000246ADF80070684624F076F813E0012025F038F9014603F063FC33E0AB20002139
:204900006A461EF005FCCDF808D004208DF80C0002A811F0D3FF60784FF480511DF028FBED
:20492000607841F288324FF4805125F0FEF919E020F04CFF16E001200021DCE7E88948F298
:204940000101401A0BD0401E05D0801E0AD1284618F064FF06E0284616F0BAF802E028463F
:2049600017F08AFE284623F061FCD1E66178381C09D0401E00F0DB80C01E00F0D180801EA7
:2049800000F0C080D7E094F83F00C10880F09F8081087AD20009C0F0CE80062084F820006F
:2049A00025F0DAF800286CD01FF0C8F82569071C67D068684078800837D3387803210022E5
:2049C0006B461EF09DFE28B968684078410831D20E201BE002980188B52912DAB42101805C
:2049E00060784FF47A724FF4005125F09EF95448416829B10078FF2814BF3878FF20884741
:204A0000256968684078400803D2092024F03EFF0AE0092003228DF80C0003AB00218DF8CC
:204A20000D200A201FF0C4FC2569686840784108C0F0818043490E6826B9800821D37AE089
:204A40008451002038781CF027FD002600B101260325301C02D00E2024F018FF0C20207028
:204A60006078402143F6982225F05FF90A208DF80D5003AB00212A468DF80C001FF098FC1E
:204A800059E00E2024F002FF55E0042294F8400084F8202040084ED394F84270002F3FD1D1
:204AA00060460078012818BF022844D1012504F120000021E57019F075FD032084F82000AE
:204AC00028461FF017F8284624F017F933E004F12000052594F84010057089080FD394F816
:204AE000421061B90121E1700422002119F05AFD84F8205000201EF0FDFF0220E4E72846BF
:204B0000002111E0002084F83E0084F8200032220846042125F009F90DE0C046644F002069
:204B200023F084FF0420012103F04AFB03E00120014620F067FE88F0040005B0BDE8F08F4C
:204B400074550020985500202DE9F04FDFF814B3C34C01214FF0E047ADF12C0DDBF8040027
:204B60002569C06808931F400170C84807924FF0000101704FF0020000EA020008BF00289E
:204B800040F0F482DFF80893DFF8088311464FF480301E4600270840374008BF002832D115
:204BA00000204FF4003110EA060701EA020108BF00290ED137464FF48001384001EA0201F6
:204BC00008BF002900F0C682002028711BF09CFDC0E22871EB2021F02FFA4A460020414699
:204BE00010700878862801D121F0A8FA25F0D8F8E1690A68002313710968E16125F056FA22
:204C000023F0D8FFA6E20020DBF80070287107F1B8000168DFF880A20F782FB951460F7887
:204C200017B1D0F89404804721F06EFA812756469A4937709A4D0860FF232B702778A7707C
:204C40000021A1812069DBF80050007A4A460E46801E81B2D5F800011670C0890A91884234
:204C6000C0F26C82E1690831096804F1180001600426A6810A98DBF80060657EA17EE37EA9
:204C800004F11902C01E80B206F1B80C0A9005EB012051786081C1F30119DCF8001023719E
:204CA00009780692002908BFB9F1020F00F04682B9F1020F00F3428219B110F0070F00F036
:204CC0003D82667800F00705AD1E022D08BF002E00F0348231B141460978862902D1002D0D
:204CE00040F02C82001300F00200022864DA35435AD1DCF81C0090F88300022851D0E16936
:204D00000C31097805A801700527A78125F048F8454606462878862840D1DBF80000403095
:204D200001680F6837B9D0F80C058047DBF80000006C07689DF9140025F076F87877DBF866
:204D40000000016C096800228A77006C9DF914100068C177304625F0A9F92679678925F0BB
:204D60001FF841460A7807F01007862A15D1BB4D05F11E031A88521C1A8087220A7025F06E
:204D800095F9E879B04206D11FB900201AF078FE07E01B20FAE7E920F8E70646304625F021
:204DA00085F923F007FFCBE141460878862803D121F0C4F9A77866788FB186B9012F00F0BD
:204DC000BD816089022F03D110F0070F40F0B681032F05D100F00701032901D0AEE16089B5
:204DE000010980F0AB81011301F00201022902DA810A80F0A38106994978C1F38108B8F199
:204E0000010F4FEAA111099100F09881012900F09581B9F1020F14DA00F00701012918BF22
:204E200003290ED1B8F1000F0BD1099F002F00F0858159460968AC3109680F78002F00F002
:204E40007D81BD49B9F1020F0ED0099E11F808708A5DB918CFB256B3C10928D3BF1E13E0B6
:204E6000BC630020140100200A46099908EB0207891809793A795218C109D7B212D20999B7
:204E800058EA010613D0BF1CFFB210E058570020B2660020B5660020B066002094660020D8
:204EA000FD1A0020099958EA010608BF02270A9AC0F30020391A60718A42C0F23F81DBF834
:204EC00000601146C91B091888B2D6F850122081743080B2884700286678606100F02E8100
:204EE0000021742219F05EFB0020E07062891EB9C14902F020000870BF48617906784FF035
:204F0000000C002E30D000292ED102F00700032808D0012828D1DBF80000D0F8D40090F81A
:204F200082600EB3DBF80400406906781EB124F031FAFE2815D0DBF80000D0F84C02804707
:204F400050B9DBF80000D0F84402804720B96289617994F803C007E00420E0706289617993
:204F600001E00420E07084466569268905F1740305F17400AB65069B686093F801902E817A
:204F80002089C9F3011A0029A5F85C001878AA8100F078004AEA00004CEA000028744FF007
:204FA000FF06AE730CBF2079002085F83A8085F84900099885F83000A089002FA0EB010018
:204FC00086B2A68100F0B580E169E78068463A468919083116F0B6FBBF19B8B2A08128460B
:204FE000017C4FEAA90212F0030F02F003076D4601F0400843D0BAF1020F4FF0000301D171
:20500000C9090BD29DF801209DF8001001EB0221A0F844100DF10205A0F84210804EB0F826
:205020004410B6F842208A4203D04FF6FF728A4223D1032F14D06A78297801EB022189B214
:205040004186B6F84020AD1C01208A4214D04FF6FF728A4218BF181C0EE0C046E454002008
:2050600060692946323024F081FE606937363146323023F0ADFD08350346002B56D00698C2
:20508000407886111ED06169BAF1020F03D0087CC00903D309E058EA070306D16A782878C9
:2050A000AD1C00EB0220A1F84200032E05D068782A7802EB00220A8504E0606929462830A5
:2050C00024F054FE59460968AC310A686089167886B1BAF1020F0DDA00F00702012A18BFBF
:2050E000032A0BD162692FB94E4BB2F842201B8893421BD100F00702032A05D0012A18D1DC
:20510000886A90F88200A0B1D1F89C116069884778B90020069FE070B97866697878C1F34A
:20512000011100F078000843307402E01BF0ECFA06E00DF0BDFA03E0B8BF020023F02CFD01
:2051400024F02EFEE1690A68002313710968E16124F0ACFF079A089F2021002011403840C8
:2051600008BF002930D023F0DFFC2DE02E4991F90000002803DD91F90000401E08702B4967
:2051800091F90000002803DD91F90000401E0870114600201E464FF080770840374008BF86
:2051A00000280DD0224991F90000002803DD91F90000401E08701F480121017023F026FF5B
:2051C000002028711BF0A0FA184A92F90000A8B1079B089F02214FF0E0401940384008BFC8
:2051E000002914D092F90000002810DCDBF80000D0F84C0580470AE0B2660020DBF80070EB
:205200000D480021D7F85824017008469047DBF80400C06800210BB00170BDE8F08FC046C1
:2052200000530020425300205B5700205A5700205C5700205957002056570020964A2DE93D
:20524000F04FADF13C0D00240A918E2309900121101D01708046D4724021517150259371B7
:205260002046D0730021D171DFF830B21172A02191729089917340F4305090812046116861
:205280001074C44CC2485572084084F832304CF21011014300200C909BF80000116058B90F
:2052A0000C981DF09BFB94F83200000910D30C9808A98DF8200008E094F83200000907D37A
:2052C00001200DF121018DF8210052201FF0A4FF14F05FFF23F046FEDFF8E4A20B900028EA
:2052E00040F0C78011F060FB00280B9040F0B6800C9804F1240674210D903246212024F0F0
:2053000067FC002857D10D9921207422334624F045F900284FD1608F4FF6FE7181424AD0CA
:2053200001200D9094F84A00082806D0042804D011F0D4F90C980D903DE0DDF834904220AC
:205340000DF122018DF822901FF066FF06F12F0143201FF061FF06F12C0147201FF05CFF93
:2053600006F11C014A201FF057FF06F11A014B201FF052FF06F1240128461FF04DFF06F191
:20538000160153201FF048FF06F12D0154201FF043FF06F11801E1201FF03EFF94F8320028
:2053A000000938BFDDF8309052200DF122018DF822901FF031FF0C9D18E00B9151E00C9A3B
:2053C000A80000EBC50029460C23814609EB07000090012020F02EF830B917F80900FF2806
:2053E00004BF002007F809006D1CADB2BAF80000DAF80470A842E2DC10F00EFD8A48001D40
:20540000006800B1804720F0F3FB0D98F0B124F031FBABF81C0028B998F8000000F0F80010
:2054200088F80000C548401C0078022818BF012003D1002184F84A1003208BF80100393608
:205440000BF11400314624F091FC01E009200B900B9F74480021002F4180AED001277148A9
:205460000B9794F83C10814601208840CBF80C0079E011F099FA11F031F904F124022120BF
:20548000742124F0ABFB02A8FF210C2219F08AF80C9D56460CE0C0466C650020504F002053
:2054A000294601200C2202AB20F096FE6D1CADB23088A842F4DC02A8FF21102219F072F814
:2054C0000C9D03202946102202AB20F085FE6D1C332DF6DB5448006800B1804722F09EF940
:2054E000002006220C99ADF8100002A819F05AF8142017F025FA061C1BD0B1480C300768FA
:20550000A7B103270225A8B202A90622801923F0A5FCAD1D7F1EF6D104A93046022223F0E0
:205520009DFC4C201421324624F058FB30461FF091F9182017F004FA071C10D00C9D182220
:20554000294619F02FF80620294618223B4620F043FE6D1C032DF6DB38461FF07BF919F077
:205560004BF9304881460B98954D01286AD1734E737804F124072BB3012B0DD0022B13D1FB
:2055800098F8000000F0F80040F002000AE0C0460000FFFF5018002098F8000000F0F80073
:2055A00040F0010088F80000864822F08BFD002808BF00200DD0042103208BF80A1008E019
:2055C0008057002098F8001001F0F80188F8001002208BF8010024F03EFB0999B36B00F017
:2055E0007F000818CBF80C306430022180B20C90FF2020F0ABFA01201AF0D2F94FF6FE700B
:205600006087461CE0870020A4F8486020F05AFB0A9801280AD002A80021082218F0C2FFAE
:2056200002A804E078560020A855002000201FF0F1F9212074213A4624F0D0FA0020022141
:2056400020F084FAE8680B9C80B9122017F078F90646002EEE606DD04FF6FE70B61F03272B
:20566000411C26F8060F7F1E7180FAD1002C61D106AB4C200021022223F090FF002852D194
:20568000BDF8180000284ED004284CDA182017F057F903274FF0020800244FF6FE7A064676
:2056A000EB681FFA88F14C2006221B1923F076FF78BBE868015B8A452BD056B30096201835
:2056C00041880022182306201FF0B4FE3069EA6800F2E93333611019418805F1340288008A
:2056E00000EBC100E9681350081973694188880000EBC1008018E9684360081941881822A0
:205700003346062020F068FD30460021182218F049FF7F1E04F1060408F10608C0D116B159
:2057200030461FF097F8054B7120002108224C3323F034FF24F01AF830B101E08451002087
:205740000120A8700027EF701F48C9F80C001F48C9F8100021F036FF1E481D490860DBF8D1
:20576000100050B10BF11004076820681FF072F838460028CBF81000F6D109984FF6FF7102
:20578000814217D0012000278BF800000BF1090201468BF80970852024F01AFA0BF1090474
:2057A00028B9852039460122234623F0F7FE0C9823F0DAF822F016FA0B980FB0BDE8F08F1F
:2057C0002C51002078530020E51401002D9802001C550020B59A01002DE9F04F0746C44CED
:2057E00097F824000026ADF1840D0128ADF83C6006D197F828102078012902D148B9B2E26F
:20580000207830B9387D022800F0AD82032800F0AA826078CB4D01280ED1C94821790078A7
:20582000884209D097F83800E32840F09C8223F081FB012800F08D824FF4FA60F860E869A8
:2058400024F0CCF840B9E869F96824F03FFA05F1980024F0C7FA02E0F9680818F86097F8CB
:20586000250002288DF8300003D008B9F86A0D9005E00DA807F11801082223F0E7FC0CA812
:205880000DF13E010FAA1AF0C3F858B913A807F13401042223F0DAFCBDF83C000DF13E0117
:2058A0001DF098FB2078012800F0BB80002840F05A82397D31F0010018BF042940F0538247
:2058C00068463146242224F0D3FA384669460AF0E5FD97F81780BDF8000010F0070F06D0AC
:2058E00000F0070002280CBF14270B2700E00F279DF81900C01987B2384624F0B7FA5FEAED
:20590000000900F0308204466946022223F09EFCBDF80000A41C10F0070F18D000F00700A8
:20592000022823D102200DF1080A8DF82400082251460AA823F08AFC20460822514623F028
:2059400085FC9DF81000083404F8010B0EE00DF1040A8DF824600AA80422514623F076FCE6
:2059600020460422514623F071FC241D05A92046042223F06BFC9DF81800241D04F8010B99
:205980009DF8190004F8010B9DF8190068B10799002900F0E8810246204623F057FC9DF8BF
:2059A00019002418079824F0A1F908A92046022223F04CFC9DF8220004F8020FB14CE068A6
:2059C000FFB248B90C2024F051FAE06000B186604770C0F8049015E0E4680834206820B1DA
:2059E00000F1080420680028FAD10C2024F03EFA206038B183680BB1866020684770C0F8CA
:205A000004902068011C00F0AE8181F8008009A808F08AF8A869322124F058F905F17400D7
:205A20009FE197F83800E32805D1206918B18047002800F0988197F83800E2280DD0E3283B
:205A40000BD0E02809D0E12807D097F82800012803D0387D032840F08681BDF83C000028C7
:205A60000CBFB0460DF13E0831462822684624F0FFF90AA83146032224F0FAF997F838C0CA
:205A8000DFF8E8B2BCF1E30F23D097F8250010F0070F16D000F0070002281AD102A807F1A5
:205AA0001801082223F0D2FB97F830009DF8283097F838C08DF8100003F0F80040F00200DE
:205AC00005E0F86A9DF82830019003F0F8008DF82800BCF1E30F0DD097F829109DF8280068
:205AE000C90000F0F70001F00801014306E0C046505600209DF8281041F008018DF8281042
:205B000097F826309DF829209DF82800190102F0EF0200F0CF0001F03001022B42F02002A6
:205B200041EA00018DF829209DF82A208DF8281002F0F8008DF82A0006DA8BB116E0C0461E
:205B40008C180020004E002097F8273043B1012B0CD19DF8290000F0FC0040F0040003E06F
:205B60009DF8290000F0F8008DF82900387D032807D1FB6B9DF82900099340F008008DF89C
:205B800029009DF829009DF8282097F84030800100F4006100F4F860084302F030019DF81D
:205BA0002820014302F008009DF82820084302F007017A6B8DF818C0084305923043ADF801
:205BC000000023B18DF8193007F141000790BBF83A00ADF8200097F91500082805DC10F1EA
:205BE0006D0FB8BF6FF06C0000E00820BB7D6E3040B2002B4FEA60000CBF311C022197F889
:205C0000179040EA81108DF82200BDF8000010F0070F06D000F0070102290CBF14270B277F
:205C200000E00F27800A06D29DF81800E22808BF8DF8196001E03F1DBFB29DF819003F18BD
:205C4000BFB2384624F012F95FEA000A00F08B8006466946022223F0F9FABDF80000B61C3C
:205C600010F0070F10D000F00700022812D102A93046082223F0EAFA9DF81000083606F807
:205C8000010B07E0C856002001A93046042223F0DDFA361D05A93046042223F0D7FA9DF88D
:205CA0001800361D06F8010B9DF8190006F8010B9DF8190060B10799002954D0024630464D
:205CC00023F0C4FA9DF819003618079824F00EF808A93046022223F0B9FA9DF8220006F878
:205CE000020FBDF80000800A04D3701C09A9042223F0ACFA85F85B70F220BBF84870E37840
:205D0000C5F85CA0A9F10C0685F85500E188A5F85670002B85F85A6006BF0F204FF6FD7177
:205D2000022085F85400B8F1000FA5F84C100AD098F80100800906D305F1580008F10B019F
:205D400022F0C8FE66E60CA819F0A0FAA5F8580060E623F0E9FE286AC82123F0B7FF05F159
:205D6000BC0024F03FF821B0BDE8F08F501800202DE9F04F9648984A017896481170974DCE
:205D8000417097495C306861ADF12C0D086004F067F998499348954EDFF854B2091D09914E
:205DA000914982468946E8684FF0FF3124F076F90028F8D028781BF049FD041C00F0268198
:205DC00021782878923976D038396BD0491E65D0173904D0491E5DD0891E56D06EE094F8D2
:205DE0004000443080B224F041F8071C66D004F10408381D0C22414623F028FA20693861B5
:205E0000207D387594F915007875A07DB875E07D0A2208F11401F87507F1180023F016FA28
:205E2000608C788494F8240087F8250094F8250087F8260094F8260087F8270094F82700C5
:205E400087F8280094F8280087F82900E06AF86294F8300087F83000606B786394F83800C6
:205E600087F83800E06BF86394F8402004F1410107F1410087F8402023F0E8F93846FFF722
:205E8000ABFC384623F032FF18E0A188A01D12F0FBFB13E0201D20F09BF80FE0CD210022F1
:205EA000032305E0002108AA08238DF82010C1211AF0B6FF02E0201D14F000FF20784FF08A
:205EC0000108712823DC71284FD0652811DC652863D0801F73D0423800F08E8018386BD04A
:205EE000401E66D0401E012840F28680801E58D06BE066384DD0801E47D0801E03287BD9B1
:205F0000001F3ED0401E38D0401E32D05DE091280FDC912870D0723802286DD9C01E20D0CC
:205F2000401E1AD0401E67D0C01E65D0801E63D04BE092380DD0C01E01285DD930380628FB
:205F40005AD91B3858D0801E012855D9093853D03BE0E76A002F4FD033E0A768002F4BD014
:205F60002FE06769002F47D02BE0E768002F43D027E0E768002F3FD023E0E768002F3BD040
:205F80001FE0E768002F37D01BE0E768002F33D017E0E768002F2FD013E0E768002F2BD021
:205FA0000FE02746786908B11EF054FCFF691FB307E0676907B304E06769EFB101E0A7689E
:205FC000D7B138461EF046FC16E04FF0000816E0A434002098410020B8660020501A00207F
:205FE00074500020C8560020004E00205018002044530020D0560020204622F017F9B8F15B
:20600000010F03D014B1204622F010F9296988081CD3AC69A868A0420BD1824800780128F8
:2060200018BF022805D10A208DF8200008A823F05BFA6868A04201D123F04CFA2969002013
:20604000A86121F00200286121F00201480AC0F0998075489BF800400078012868D023F0F0
:206060008DFD011C00F08A808A7B96F8248086F82420778F8A7B08698BF800208A898B7B4E
:206080007287012200920022019201220292002203920493427805924068002321220690A3
:2060A00001200790F22009F009FE8BF800405F4986F824801E200870DAF80800778750B3F8
:2060C0005F490C681434276857B102693969914205D007F114042768002FF7D100E097B94A
:2060E000DAF80C707FB1786823F000FE0021DAF80C00099F4160386823F0F8FD0020CAF85F
:206100000C00DAF8080023F0F1FD0020CAF808002068CAF80800D9F8181023F02FFD68B309
:206120000846322123F0D2FD414823F05BFE25E0B9F85810778F71873E4999F85A008BF8D6
:20614000000096F8248086F82400012300930022019202930392049099F85B000590D9F8EF
:206160005C0004232122069001200790F22009F0A5FD8BF8004086F824807787296921F4D4
:2061800080712961D9F80C008A0A3CD3071C34D0C468F968A1421FD839468F6800B3D0F885
:2061A0000880814210D00246434601E01A469368B3B1AAB19942F9D198689060184623F0E2
:2061C00095FDD9F80C000BE01B48006823F08EFD4046C9F80C0003E0F968091BF960BF68C1
:2061E000002FD5D14CB1D9F81C1030B10846214623F06CFD114823F0F5FD296921F4007049
:20620000286121F40071C80A05D31DF095F9296921F4806129610809FFF4C5AD21F0080188
:206220002961C0E5855100205056002018560020744E00204C4E00200C4E0020984E0020C9
:20624000D05600202DE9FC47D44C0F460546F80B80F006826078DFF85883B90F80F0AA81F7
:20626000B90880F09D81F90A80F00281390B80F0CC80380907D2F80FC0F0288227F0804780
:2062800019F0ECFD22E223F08BFD814622F01EF8002800F0B480082023F03AFC002840F069
:2062A000AE80802023F034FC002840F0A880684615F064FC012803D10098002800F09F806E
:2062C00094F84102002840F09A8000250126E8B223F0C4F848B1837A3BB1867290F909005C
:2062E00006FA00F0C0B21FF06FFD6D1C032DEED3032084F8200004F5CC7023F049FD48466C
:2063000023F0D4FED34800252A460168056050F8081CD14940F8085C04F15C0021F026FF71
:2063200040460068006B8047A168401A010BA06AC1F1FF3282422CBF08444FF0FF30A06276
:2063400094F82C0020B12069A16AB1EBC02F25D921F0CCFF294600B13146081C1BD0BF480E
:2063600040F6090101804580417B06F00F0221F00F010A434273017B05F00F0321F00F010D
:2063800043EA010202732946416023F037FA418811F4406FFBD084F82C60A5621DF042FA64
:2063A000CE4829460560022021F076FC022020F097F9112012F06AFE207818B96068483048
:2063C00023F004FDC648007810B90E2012F05EFE94F82D0020B184F82D50052020F080F99D
:2063E000C048606284F82050B4F9B000B4F9B210884214BF0220072017F0C6F802E0484600
:2064000023F054FE27F008073AE720B1042020F067F90020607065681FF030F938B128461F
:20642000ED696FF4807100224FF00073A847E06858B140460068006B8047E2686168801AD1
:20644000C860000BC8600026E660A74904F15C00002221F08BFE0221D4F89C0084F8201041
:2064600018B104F1DC0023F0B9FC27F4006707E723F096FC064621F029FFD4F89410002888
:20648000894600F08480002900F081809749042504F15C00002284F8205021F067FE3046CB
:2064A00023F004FE04F5CC7023F072FC40460068006B8047E0604FF0010884F801802846FE
:2064C00020F026F9D9F810006060D9F81000416AC90803D3036A29460022984740461AF04C
:2064E0004BFF606880F81580606812F04DFF6568D5F808A040F60A02D01F564600F1010C5A
:2065000000E01E46736833B119888A4203D0884218BF8C45F5D100217160727B08F00F0317
:2065200022F00F0213437373D9F80C201288904224D06046904221D02B8E03B3696305F105
:206540003002518095F83C0001F00F0320F00F00034385F83C3095F83D0008F00F0320F03A
:206560000F00034385F83D307260707B01F00F0520F00F0045EA0001717300E0E160504630
:2065800023F03CF95146404621F086FB02E0304623F08CFD27F4806798E0C0464010002020
:2065A0000BF0DCFFD4F89C0008B927F002078DE08C0100104E4A116841F08001116020B1AD
:2065C000042020F08DF80020607023F0E9FB8246D8F85400016804208847D0B1287DC0B13C
:2065E000A068B0B18146D8F800002E69006B8047A0EB09002861000B2861B04202D28019C2
:206600004008286140F6C41181422CBFB0F5967F2961504623F04AFD1FF030F880B1EE69FD
:2066200028466FF4807100224FF00073B047D4F89400002808BF47F0020701D019F00EFC5A
:206640002846AD6900214FF080630A46A84727F000573BE0141004406119020080650020C2
:2066600023F09EFBD4F8AC6066B306F1280106C90A234FF0E0450B40154008BF002B21D179
:2066800006F1280191E8000306F1280595E8060006F1280322EA090221EA080183E80600F9
:2066A00023F004FDB16879B1B9F1000F08BFB8F1000F09D03069B6F93010B5684B464246B4
:2066C000A84701E023F0F2FC27F4804727B104F1DC00394623F082FBBDE8FC8700000460C3
:2066E0004ABF0200CD670100155D0100AD820200CC2108402DE9F04FADF1840D1B91CB493D
:206700001C923CC9064610A83CC00EC980E80E0000248DF84240317F8DF84340B28D8DF8D2
:206720004D40D6F828C0ADF844400F46ADF85A20F2898DF854706046ADF84A20027802F094
:206740000303022B8DF8402000F3C38123461D93401C1F9353083CD202F00C0EBEF10C0F84
:206760000CD053093CBF10F8013B8DF84230BEF1080F04BF01238DF84C3001D08DF84C401B
:20678000BEF10C0F0AD0737903F00303012B0CD142F00C0273898DF8402004E0457803782A
:2067A000801C03EB0523ADF84430530911D245780378801C03EB0523ADF846300378457892
:2067C000801C03EB0523ADF8483010F8013B8DF8433010F8013B32F07F058DF855301ED0CC
:2067E000037833F003058DF8413040F06E8103F0030EBEF1030F00F0688113F0030F00F13A
:2068000001000ED010F8013B02F00305022D8DF8573004BF10F8013B8DF8583001E08DF8A6
:2068200041401490A0EB0C003F1AFFB2B942C0F24C81C91B8DF85470C8B28DF84D00074355
:2068400000F04781D00907D370891DF0A3FF002840F03F819DF8402002F00C002146001F94
:2068600008BF01211E91910933D301211F9180B3B28923F0FFF8904202D1F08D000A0ED28A
:2068800023F0F8F8904222D0F08D01460B0A38BF101C07D39DF8402002F0030C2EE070895E
:2068A000ADF85A20804623F0E5F8BDF85A10884205D040461BF0EFFD002800F00A81864857
:2068C000026810A940469047002840F002819DF84020F08D02F0030C01460B0A0ED2D309D2
:2068E0000CD39DF8413013F0030F07D102F00C030C2B03D0082B1CBF01231D93DFF8E081A1
:20690000BCF1020F00F0C280BCF1010F00F0908012F0030F40F0DD80704A92F82F20012A6B
:2069200003D1B779002F00F0D4809DF8542002231A92040A9DF84250BDF846B0BDF848A089
